{
  "contractName": "TodoList",
  "abi": [
    {
      "constant": true,
      "inputs": [
        {
          "name": "",
          "type": "uint256"
        }
      ],
      "name": "tasks",
      "outputs": [
        {
          "name": "id",
          "type": "uint256"
        },
        {
          "name": "content",
          "type": "string"
        },
        {
          "name": "completed",
          "type": "bool"
        },
        {
          "name": "deadline",
          "type": "string"
        }
      ],
      "payable": false,
      "stateMutability": "view",
      "type": "function",
      "signature": "0x8d977672"
    },
    {
      "constant": true,
      "inputs": [],
      "name": "taskCount",
      "outputs": [
        {
          "name": "",
          "type": "uint256"
        }
      ],
      "payable": false,
      "stateMutability": "view",
      "type": "function",
      "signature": "0xb6cb58a5"
    },
    {
      "inputs": [],
      "payable": false,
      "stateMutability": "nonpayable",
      "type": "constructor",
      "signature": "constructor"
    },
    {
      "anonymous": false,
      "inputs": [
        {
          "indexed": false,
          "name": "id",
          "type": "uint256"
        },
        {
          "indexed": false,
          "name": "content",
          "type": "string"
        },
        {
          "indexed": false,
          "name": "completed",
          "type": "bool"
        },
        {
          "indexed": false,
          "name": "deadline",
          "type": "string"
        }
      ],
      "name": "TaskCreated",
      "type": "event",
      "signature": "0x8e81f8d5e6292a32213e5078b457b4f4d2f7717afb1fd146eccb6d1ee8ca16a5"
    },
    {
      "anonymous": false,
      "inputs": [
        {
          "indexed": false,
          "name": "id",
          "type": "uint256"
        },
        {
          "indexed": false,
          "name": "completed",
          "type": "bool"
        }
      ],
      "name": "TaskCompleted",
      "type": "event",
      "signature": "0xe21fa966ca5cd02748c0752352d18c48165e61cb55b4c29cccf924b5a95fcff1"
    },
    {
      "constant": false,
      "inputs": [
        {
          "name": "_content",
          "type": "string"
        },
        {
          "name": "_deadline",
          "type": "string"
        }
      ],
      "name": "createTask",
      "outputs": [],
      "payable": false,
      "stateMutability": "nonpayable",
      "type": "function",
      "signature": "0x292a4585"
    },
    {
      "constant": false,
      "inputs": [
        {
          "name": "_id",
          "type": "uint256"
        }
      ],
      "name": "toggleCompleted",
      "outputs": [],
      "payable": false,
      "stateMutability": "nonpayable",
      "type": "function",
      "signature": "0x455f5024"
    }
  ],
  "bytecode": "0x60806040526000805534801561001457600080fd5b506100986040805190810160405280600881526020017f4e6577205461736b0000000000000000000000000000000000000000000000008152506040805190810160405280600681526020017f4e6f20647565000000000000000000000000000000000000000000000000000081525061009d640100000000026401000000009004565b6102df565b6000805460019081018083556040805160808101825282815260208082018881528284018790526060830188905293865284815291909420845181559151805192936100f193908501929190910190610244565b50604082015160028201805460ff191691151591909117905560608201518051610125916003840191602090910190610244565b509050507f8e81f8d5e6292a32213e5078b457b4f4d2f7717afb1fd146eccb6d1ee8ca16a56000548360008460405180858152602001806020018415151515815260200180602001838103835286818151815260200191508051906020019080838360005b838110156101a257818101518382015260200161018a565b50505050905090810190601f1680156101cf5780820380516001836020036101000a031916815260200191505b50838103825284518152845160209182019186019080838360005b838110156102025781810151838201526020016101ea565b50505050905090810190601f16801561022f5780820380516001836020036101000a031916815260200191505b50965050505050505060405180910390a15050565b828054600181600116156101000203166002900490600052602060002090601f016020900481019282601f1061028557805160ff19168380011785556102b2565b828001600101855582156102b2579182015b828111156102b2578251825591602001919060010190610297565b506102be9291506102c2565b5090565b6102dc91905b808211156102be57600081556001016102c8565b90565b610902806102ee6000396000f3fe6080604052600436106100615763ffffffff7c0100000000000000000000000000000000000000000000000000000000600035041663292a45858114610066578063455f5024146101a25780638d977672146101cc578063b6cb58a5146102e6575b600080fd5b34801561007257600080fd5b506101a06004803603604081101561008957600080fd5b8101906020810181356401000000008111156100a457600080fd5b8201836020820111156100b657600080fd5b803590602001918460018302840111640100000000831117156100d857600080fd5b91908080601f016020809104026020016040519081016040528093929190818152602001838380828437600092019190915250929594936020810193503591505064010000000081111561012b57600080fd5b82018360208201111561013d57600080fd5b8035906020019184600183028401116401000000008311171561015f57600080fd5b91908080601f01602080910402602001604051908101604052809392919081815260200183838082843760009201919091525092955061030d945050505050565b005b3480156101ae57600080fd5b506101a0600480360360208110156101c557600080fd5b50356104b4565b3480156101d857600080fd5b506101f6600480360360208110156101ef57600080fd5b50356106c8565b60405180858152602001806020018415151515815260200180602001838103835286818151815260200191508051906020019080838360005b8381101561024757818101518382015260200161022f565b50505050905090810190601f1680156102745780820380516001836020036101000a031916815260200191505b50838103825284518152845160209182019186019080838360005b838110156102a757818101518382015260200161028f565b50505050905090810190601f1680156102d45780820380516001836020036101000a031916815260200191505b50965050505050505060405180910390f35b3480156102f257600080fd5b506102fb61080a565b60408051918252519081900360200190f35b60008054600190810180835560408051608081018252828152602080820188815282840187905260608301889052938652848152919094208451815591518051929361036193908501929190910190610810565b50604082015160028201805460ff191691151591909117905560608201518051610395916003840191602090910190610810565b509050507f8e81f8d5e6292a32213e5078b457b4f4d2f7717afb1fd146eccb6d1ee8ca16a56000548360008460405180858152602001806020018415151515815260200180602001838103835286818151815260200191508051906020019080838360005b838110156104125781810151838201526020016103fa565b50505050905090810190601f16801561043f5780820380516001836020036101000a031916815260200191505b50838103825284518152845160209182019186019080838360005b8381101561047257818101518382015260200161045a565b50505050905090810190601f16801561049f5780820380516001836020036101000a031916815260200191505b50965050505050505060405180910390a15050565b6104bc61088e565b60008281526001602081815260409283902083516080810185528154815281840180548651600296821615610100026000190190911695909504601f810185900485028601850190965285855290949193858401939092908301828280156105655780601f1061053a57610100808354040283529160200191610565565b820191906000526020600020905b81548152906001019060200180831161054857829003601f168201915b505050918352505060028281015460ff16151560208084019190915260038401805460408051601f600019600185161561010002019093169590950491820184900484028501840181528185529094019390918301828280156106095780601f106105de57610100808354040283529160200191610609565b820191906000526020600020905b8154815290600101906020018083116105ec57829003601f168201915b505050919092525050506040808201805115905260008481526001602081815292909120835181558284015180519495508594919361064d93850192910190610810565b50604082015160028201805460ff191691151591909117905560608201518051610681916003840191602090910190610810565b5050506040808201518151848152901515602082015281517fe21fa966ca5cd02748c0752352d18c48165e61cb55b4c29cccf924b5a95fcff1929181900390910190a15050565b600160208181526000928352604092839020805481840180548651600296821615610100026000190190911695909504601f810185900485028601850190965285855290949193929091908301828280156107645780601f1061073957610100808354040283529160200191610764565b820191906000526020600020905b81548152906001019060200180831161074757829003601f168201915b505050506002838101546003850180546040805160206101006001851615026000190190931695909504601f8101839004830286018301909152808552959660ff909316959294509091908301828280156108005780601f106107d557610100808354040283529160200191610800565b820191906000526020600020905b8154815290600101906020018083116107e357829003601f168201915b5050505050905084565b60005481565b828054600181600116156101000203166002900490600052602060002090601f016020900481019282601f1061085157805160ff191683800117855561087e565b8280016001018555821561087e579182015b8281111561087e578251825591602001919060010190610863565b5061088a9291506108b9565b5090565b6080604051908101604052806000815260200160608152602001600015158152602001606081525090565b6108d391905b8082111561088a57600081556001016108bf565b9056fea165627a7a723058208269c08e86ae3c1b4cd8d19d1d7ab5df0f4471abc7b1588e340cf566118300800029",
  "source": "pragma solidity ^0.5.0;\r\n\r\ncontract TodoList {\r\n  uint public taskCount = 0;\r\n\r\n  struct Task {\r\n    uint id;\r\n    string content;\r\n    bool completed;\r\n    string deadline;\r\n  }\r\n\r\n  mapping(uint => Task) public tasks;\r\n\r\n  event TaskCreated(\r\n    uint id,\r\n    string content,\r\n    bool completed,\r\n    string deadline\r\n  );\r\n\r\n  event TaskCompleted(\r\n    uint id,\r\n    bool completed\r\n  );\r\n\r\n  constructor() public {\r\n    createTask(\"New Task\", \"No due\");\r\n  }\r\n\r\n  function createTask(string memory _content, string memory _deadline) public {\r\n    taskCount ++;\r\n    tasks[taskCount] = Task(taskCount, _content, false, _deadline);\r\n    emit TaskCreated(taskCount, _content, false, _deadline);\r\n  }\r\n\r\n  function toggleCompleted(uint _id) public {\r\n    Task memory _task = tasks[_id];\r\n    _task.completed = !_task.completed;\r\n    tasks[_id] = _task;\r\n    emit TaskCompleted(_id, _task.completed);\r\n  }\r\n\r\n}",
  "sourcePath": "D:/Projects/10. Blockchain App Using Ethereum Smart Contracts and Solidity/eth-todo-list/contracts/TodoList.sol",
  "compiler": {
    "name": "solc",
    "version": "0.5.0+commit.1d4f565a.Emscripten.clang"
  },
  "schemaVersion": "3.0.1",
  "updatedAt": "2024-06-11T08:10:11.862Z",
  "devdoc": {
    "methods": {}
  },
  "userdoc": {
    "methods": {}
  }
}